:100000000C9431000C9447060C9470060C944E002E
:100010000C944E000C944E000C94D9070C94870756
:100020000C94B0070C945E070C9499060C94C206CD
:100030000C944E000C944E000C944E000C944E0008
:100040000C944E000C944E000C944E000C944E00F8
:100050000C944E00F006F806FD0608070A07120782
:10006000140711241FBECFE5D8E0DEBFCDBF10E0DE
:10007000A0E6B0E0E0EFF2E102C005900D92A239F7
:10008000B107D9F720E0A2E9B0E001C01D92A73B7B
:10009000B207E1F70E946B040C9476090C940000FF
:1000A000CF93DF9343E062E082E00E94000543E0EB
:1000B00063E082E00E94000543E064E082E00E9489
:1000C000000543E065E082E00E94000567E083E010
:1000D0000E94010666E083E00E94010665E083E07D
:1000E0000E94010663E083E00E940106C4E6D0E0BE
:1000F000699141E082E00E94850580E0C836D8071A
:10010000B9F7DF91CF9108959F92AF92BF92CF92AE
:10011000DF92EF92FF920F931F93CF93DF9394E6BA
:10012000C92E90E0D92EC8E6D0E0F12CF601E1907E
:100130006F0140E06E2D82E00E94850580E6A82ECA
:1001400080E0B82E00E010E0F50191905F01692D8C
:1001500083E00E94E90581110AC0FE01E00FF11F52
:10016000F080692D83E00E94E9058823D1F30F5FB9
:100170001F4F0430110541F741E06E2D82E00E94CF
:1001800085052496F0E0C837DF0781F68F2DDF91D3
:10019000CF911F910F91FF90EF90DF90CF90BF9084
:1001A000AF909F900895CF93C82F40E063E080E028
:1001B0000E9485054C2F441F4427441F64E081E0C2
:1001C0000E948505C6FB442740F962E081E00E9459
:1001D0008505C5FB442740F961E081E00E94850563
:1001E000C4FB442740F960E081E00E94850541E0BE
:1001F00062E080E00E9485058FE99FE00197F1F7BA
:1002000000C0000040E062E080E00E9485058FE9C8
:100210009FE00197F1F700C00000C3FB442740F9BD
:1002200064E081E00E948505C2FB442740F962E05A
:1002300081E00E948505C1FB442740F961E081E02F
:100240000E9485054C2F417060E081E00E94850589
:1002500041E062E080E00E9485058FE99FE0019720
:10026000F1F700C0000040E062E080E00E948505F8
:100270008FE99FE00197F1F700C00000CF9108954A
:10028000CF93C82F41E063E080E00E9485054C2FAA
:10029000441F4427441F64E081E00E948505C6FB9B
:1002A000442740F962E081E00E948505C5FB4427B0
:1002B00040F961E081E00E948505C4FB442740F9D4
:1002C00060E081E00E94850541E062E080E00E94FC
:1002D00085058FE99FE00197F1F700C0000040E03D
:1002E00062E080E00E9485058FE99FE00197F1F7C9
:1002F00000C00000C3FB442740F964E081E00E9495
:100300008505C2FB442740F962E081E00E94850533
:10031000C1FB442740F961E081E00E9485054C2F34
:10032000417060E081E00E94850541E062E080E08C
:100330000E9485058FE99FE00197F1F700C000005A
:1003400040E062E080E00E9485058FE99FE0019730
:10035000F1F700C00000CF91089543E062E080E033
:100360000E94000543E063E080E00E94000543E056
:1003700060E081E00E94000543E061E081E00E94CE
:10038000000543E062E081E00E94000543E064E094
:1003900081E00E9400052FEF86E791E02150804028
:1003A0009040E1F700C0000082E00E94D30088E2A4
:1003B0000E94D3008DE00E94D30081E00E94D30010
:1003C00086E00C94D3000C9440010F931F93CF93BD
:1003D0008C01C0E0F801EC0FF11D8081882321F031
:1003E0000E944001CF5FF6CFCF911F910F910895EA
:1003F000982F862F923059F018F4913031F00895EB
:10040000933039F0943039F00895815805C0815403
:1004100003C08D5601C08D520C94D3002F923F9291
:100420004F925F926F927F928F929F92AF92BF9204
:10043000CF92DF92EF92FF920F931F93CF93DF93B0
:10044000CDB7DEB72D970FB6F894DEBF0FBECDBF88
:1004500029013A014B011C01CE0101969A87898737
:1004600088E0E985FA8511928A95E9F7C101A0E053
:100470000E946A096CF48DE20E9440019201A3017E
:10048000B401C1010E94230929013A014B011C0159
:100490001B869201A301B401C101A0E00E946A0978
:1004A00051F181E090E08C0F9D1FEB858E0F911D27
:1004B0009D878C878AE0A82EB12CC12CD12CE12CF1
:1004C000F12C00E010E09201A301B401C1010E94EF
:1004D0009308205DEC85FD8520839201A301B40182
:1004E000C1010E94950829013A014B011C01FB85BD
:1004F000FF5FFB87CECF9B849A9497FC0CC0E1E012
:10050000F0E0EC0FFD1FE90DF11D97FCFA958081DD
:100510000E944001F1CF2D960FB6F894DEBF0FBEBA
:10052000CDBFDF91CF911F910F91FF90EF90DF90A2
:10053000CF90BF90AF909F908F907F906F905F9083
:100540004F903F902F90089580919B0090919C0038
:10055000A0919D00B0919E00892B8A2B8B2B29F4B2
:100560000E94280781E08093930080919B009091E6
:100570009C00A0919D00B0919E000197A109B10936
:1005800080939B0090939C00A0939D00B0939E004D
:100590000895CF92DF92EF92FF92CF936B017C018F
:1005A000611571058105910541F120E13EE040E0D2
:1005B00050E00E945C08C22F2093960030E0A0E13A
:1005C000BEE00E948408A7019601261B370B480B4A
:1005D000590BCA01B9012CE330E040E050E00E9421
:1005E0005C082093950030E1C39FC01811244CE3B0
:1005F000249FC0181124C0929400CF91FF90EF90D7
:10060000DF90CF900895809196008A3058F4811140
:1006100007C062E084E00E94F80180E30E94E301E9
:1006200062E001C061E084E00E94F8012091960040
:1006300030E040E050E060E070E080E090E00E9458
:100640000E02809195008A3050F465E0811108C057
:1006500084E00E94F80180E30E94E3010FC064E09F
:1006600084E00E94F8012091950030E040E050E0E5
:1006700060E070E080E090E00E940E0280919400C3
:1006800067E08A3088F484E00E94F80180E30E94E9
:10069000E3018091940068E0811106C084E00E942B
:1006A000F80180E30C94E30184E00E94F8012091BA
:1006B000940030E040E050E060E070E080E090E0E6
:1006C0000C940E0261E084E00E94F80188E790E05B
:1006D0000C94E501109296001092950010929400EF
:1006E0008091970090919800A0919900B0919A0004
:1006F00080939B0090939C00A0939D00B0939E00DC
:1007000008958F929F92AF92BF92CF92DF92EF9215
:10071000FF920F931F93CF93DF9361E081E00E94DC
:10072000F80181E890E00E94E50161E082E00E942A
:10073000F80187E890E00E94E50161E083E00E9413
:10074000F8018CE890E00E94E50141E065E080E07E
:100750000E94850566E081E00E94F801C0E000E0AB
:1007600010E0E12CF12CC12CD12C8CE3882E90E1EF
:10077000A92E9EE0B92E2AE0922E0E948400D82F46
:1007800080ED8D0F8A3060F58D2F0E94E301C1113D
:100790000CC09C9CC0019D9C900D11246C01CD0E41
:1007A000D11C80E3C81AD108E8CFC13061F49E9C07
:1007B000C0019F9C900D11247C01ED0EF11C80E383
:1007C000E81AF108DACFC230C1F6909EC001919EBE
:1007D000900D11248C010D0F111D00531109CDCF67
:1007E000D33609F064C0C11121C065E082E00E94E7
:1007F000F801CA9C9001CB9C300DDA9C300D11247D
:1008000080919B0090919C00A0919D00B0919E00D2
:10081000820F931FA11DB11D80939B0090939C009C
:10082000A0939D00B0939E00C1E0A7CFC130F9F422
:1008300065E083E00E94F8018E9C90018F9C300D52
:10084000112480919B0090919C00A0919D00B091FB
:100850009E00820F931FA11DB11D80939B0090935A
:100860009C00A0939D00B0939E00C2E086CFC23052
:1008700009F083CF80919B0090919C00A0919D00F6
:10088000B0919E00800F911FA11DB11D80939B0010
:1008900090939C00A0939D00B0939E00809397003E
:1008A00090939800A0939900B0939A0003C0DB3214
:1008B00009F063CF40E065E080E0DF91CF911F91C8
:1008C0000F91FF90EF90DF90CF90BF90AF909F90EF
:1008D0008F900C9485050E94450643E064E080E01B
:1008E0000E94000543E065E080E00E94000543E0CF
:1008F00066E080E00E94000543E067E081E00E943E
:1009000000050E9450000E94AD010E9481030E94D8
:1009100062032FEF80E792E0215080409040E1F7A2
:1009200000C0000060919B0070919C0080919D0030
:1009300090919E000E94C9028CE00E94D30082E048
:100940000E94E60682E00E94200764EA72E081E0ED
:1009500090E00E9430080E948400C82F60919B00A4
:1009600070919C0080919D0090919E000E94C90210
:100970000E940303809193008130B1F441E067E06D
:100980000E9485050E9462031092930010929B00C2
:1009900010929C0010929D0010929E001092960062
:1009A0001092940010929500C336D1F48091920079
:1009B00081110BC00E94280781E08093920041E0E2
:1009C00064E080E00E948505C6CF82E00E94200797
:1009D00040E064E080E00E94850510929200BBCF69
:1009E000C03309F0B8CF0E9462030E946A0340E05E
:1009F00067E081E00E94850581E080939200ABCFA3
:100A00004330E1F5813099F028F08230E9F083300D
:100A100041F108952AB381E090E001C0880F6A9502
:100A2000EAF7922F982B9ABB9BB380953EC027B3D1
:100A300081E090E001C0880F6A95EAF7922F982B29
:100A400097BB98B3809540C024B381E090E001C08B
:100A5000880F6A95EAF7922F982B94BB95B38095EF
:100A600042C021B381E090E001C0880F6A95EAF7A7
:100A7000922F982B91BB92B3809544C0423009F0DD
:100A800043C08130A9F028F0823009F1833071F140
:100A900008952AB381E090E001C0880F6A95EAF7D3
:100AA0008095922F98239ABB9BB389238BBB089583
:100AB00027B381E090E001C0880F6A95EAF780953E
:100AC000922F982397BB98B3892388BB089524B3AA
:100AD00081E090E001C0880F6A95EAF78095922F37
:100AE000982394BB95B3892385BB089521B381E0F6
:100AF00090E001C0880F6A95EAF78095922F9823BD
:100B000091BB92B3892382BB0895413061F5813056
:100B100079F028F08230A9F08330E1F008952BB30A
:100B200081E090E001C0880F6A95EAF7822B2EC021
:100B300028B381E090E001C0880F6A95EAF7822B24
:100B400030C025B381E090E001C0880F6A95EAF7D4
:100B5000822B32C022B381E090E001C0880F6A95F9
:100B6000EAF7822B34C0411133C0813089F028F07C
:100B70008230C9F0833011F108952BB381E090E009
:100B800001C0880F6A95EAF7809582238BBB089590
:100B900028B381E090E001C0880F6A95EAF780955C
:100BA000822388BB089525B381E090E001C0880FBF
:100BB0006A95EAF78095822385BB089522B381E088
:100BC00090E001C0880F6A95EAF78095822382BB86
:100BD0000895813049F030F0823041F0833079F46B
:100BE00080B305C089B303C086B301C083B390E06E
:100BF00002C0959587956A95E2F78170089580E027
:100C000008958130A9F028F0823009F1833071F124
:100C100008952AB381E090E001C0880F6A95EAF751
:100C2000982F909592239ABB9BB3892B8BBB0895E9
:100C300027B381E090E001C0880F6A95EAF7982F0A
:100C40009095922397BB98B3892B88BB089524B3C2
:100C500081E090E001C0880F6A95EAF7982F90959F
:100C6000922394BB95B3892B85BB089521B381E072
:100C700090E001C0880F6A95EAF7982F909592232B
:100C800091BB92B3892B82BB0895789408951F92EB
:100C90000F920FB60F9211242F933F934F935F93B0
:100CA0006F937F938F939F93AF93BF93EF93FF9334
:100CB000E091A100F091A200309709F00995FF9111
:100CC000EF91BF91AF919F918F917F916F915F91C4
:100CD0004F913F912F910F900FBE0F901F9018953D
:100CE0001F920F920FB60F9211242F933F934F93A1
:100CF0005F936F937F938F939F93AF93BF93EF9384
:100D0000FF93E0919F00F091A000309709F00995C2
:100D1000FF91EF91BF91AF919F918F917F916F91D3
:100D20005F914F913F912F910F900FBE0F901F90A9
:100D300018951F920F920FB60F9211242F933F9385
:100D40004F935F936F937F938F939F93AF93BF93D3
:100D5000EF93FF93E091AB00F091AC00309709F076
:100D60000995FF91EF91BF91AF919F918F917F91E5
:100D70006F915F914F913F912F910F900FBE0F9008
:100D80001F9018951F920F920FB60F9211242F9358
:100D90003F934F935F936F937F938F939F93AF9303
:100DA000BF93EF93FF930E949906FF91EF91BF913C
:100DB000AF919F918F917F916F915F914F913F91F3
:100DC0002F910F900FBE0F901F90189590E08730D5
:100DD0009105A8F5FC01E65DFF4F8FB50C947E08E8
:100DE0008E7F8FBD8FB58D7F8FBD8EB5877F0CC0F9
:100DF0008E7F8FBD8FB58D7F1BC08E7F8FBD8FB5D2
:100E00008D7F8FBD8EB588608EBD8EB58F7E16C0EE
:100E10008E7F01C081608FBD8FB582608FBD8EB522
:100E2000877F09C08E7F01C081608FBD8FB58260D2
:100E30008FBD8EB588608EBD8EB580618EBD0895E4
:100E40009EB5987F9EBD9EB58770982B9EBD0895D8
:100E50008EB58E7F8EBD8EB58D7F8EBD8EB58B7F10
:100E60008EBD8FB58E7F8FBD8FB58D7F8FBD8FB5BA
:100E70008B7F8FBD089589B7806189BF08959BBD21
:100E80008ABD0895813059F028F0823069F08330AE
:100E900081F008957093AA006093A900089570935B
:100EA000A8006093A70008957093A6006093A50022
:100EB00008957093A4006093A30008951F920F9269
:100EC0000FB60F9211242F933F934F935F936F931D
:100ED0007F938F939F93AF93BF93EF93FF93E09193
:100EE000A900F091AA00309709F00995FF91EF91C0
:100EF000BF91AF919F918F917F916F915F914F9132
:100F00003F912F910F900FBE0F901F9018951F9239
:100F10000F920FB60F9211242F933F934F935F932D
:100F20006F937F938F939F93AF93BF93EF93FF93B1
:100F3000E091A700F091A800309709F00995FF9182
:100F4000EF91BF91AF919F918F917F916F915F9141
:100F50004F913F912F910F900FBE0F901F901895BA
:100F60001F920F920FB60F9211242F933F934F931E
:100F70005F936F937F938F939F93AF93BF93EF9301
:100F8000FF93E091A500F091A600309709F0099534
:100F9000FF91EF91BF91AF919F918F917F916F9151
:100FA0005F914F913F912F910F900FBE0F901F9027
:100FB00018951F920F920FB60F9211242F933F9303
:100FC0004F935F936F937F938F939F93AF93BF9351
:100FD000EF93FF93E091A300F091A400309709F004
:100FE0000995FF91EF91BF91AF919F918F917F9163
:100FF0006F915F914F913F912F910F900FBE0F9086
:101000001F9018958091AD009091AE00A091AF0017
:10101000B091B0000196A11DB11D8093AD009093D9
:10102000AE00A093AF00B093B0004091B3005091D8
:10103000B4006091B5007091B60084179507A607BB
:10104000B70769F41092AD001092AE001092AF0095
:101050001092B000E091B100F091B20009940895AF
:101060000F931F93CF93DF938C01EB0187EE93E0F7
:101070000E943F0728EE33E0029FC001039F900DBE
:10108000129F900D1124A0E0B0E08093B3009093E4
:10109000B400A093B500B093B600D093B200C09353
:1010A000B10062E078E081E00E944207DF91CF91D9
:1010B0001F910F910C943B07A1E21A2EAA1BBB1B98
:1010C000FD010DC0AA1FBB1FEE1FFF1FA217B30714
:1010D000E407F50720F0A21BB30BE40BF50B661F2A
:1010E000771F881F991F1A9469F7609570958095EE
:1010F00090959B01AC01BD01CF010895EE0FFF1F3C
:101100000590F491E02D0994A29FB001B39FC00116
:10111000A39F700D811D1124911DB29F700D811D23
:101120001124911D0895689401C0E894F92FF12BC2
:1011300012F00C94C708A0E0B0E0E1EAF8E00C94EB
:101140003909092E059422F40E942309112392F4EF
:10115000F0E80F26FFEFE094F09400951095B0941E
:10116000C094D094A194BF0ACF0ADF0AEF0AFF0A05
:101170000F0B1F0B0E94D20807FC0E942309CDB75A
:10118000DEB7ECE00C945509689401C0E8948F92A6
:101190009F92CF93DF930E94D208DF91CF919F90CF
:1011A0008F90089588249924F401E401B0E49F937A
:1011B000AA279A158B049C04ED05FE05CF05D007E0
:1011C000A10798F4AD2FDC2FCF2FFE2FE92D982CFF
:1011D000892E982F872F762F652F542F432F322F4C
:1011E0002227B85031F7BF9127C01B2EBF91BB27D4
:1011F000220F331F441F551F661F771F881F991F1B
:10120000881C991CEE1FFF1FCC1FDD1FAA1FBB1FD0
:101210008A149B04EC05FD05CE05DF05A007B10788
:1012200048F08A189B08EC09FD09CE09DF09A00BDC
:10123000B10B21601A94E1F62EF49401AF01BE01C6
:10124000CD01000C0895609570958095909530952E
:101250004095509521953F4F4F4F5F4F6F4F7F4FB8
:101260008F4F9F4F08952F923F924F925F926F92B0
:101270007F928F929F92AF92BF92CF92DF92EF9226
:10128000FF920F931F93CF93DF93CDB7DEB7CA1BA7
:10129000DB0B0FB6F894DEBF0FBECDBF09942A88D2
:1012A000398848885F846E847D848C849B84AA847A
:1012B000B984C884DF80EE80FD800C811B81AA8107
:1012C000B981CE0FD11D0FB6F894DEBF0FBECDBFD2
:1012D000ED0108950024A7FD00942A17300540056C
:1012E000500560057005800590050895F894FFCFBE
:1012F00007060503050403023738392F34353678DD
:101300003132332D63303D2B30303A30303A30308B
:1013100000486F75723A004D696E3A005365633A42
:021320000000CB
:00000001FF
